{
  "contractName": "Payment",
  "abi": [
    {
      "inputs": [
        {
          "internalType": "address",
          "name": "_rider",
          "type": "address"
        },
        {
          "internalType": "address",
          "name": "_driver",
          "type": "address"
        },
        {
          "internalType": "uint256",
          "name": "_rideCost",
          "type": "uint256"
        }
      ],
      "payable": false,
      "stateMutability": "nonpayable",
      "type": "constructor"
    },
    {
      "constant": true,
      "inputs": [],
      "name": "driver",
      "outputs": [
        {
          "internalType": "address",
          "name": "",
          "type": "address"
        }
      ],
      "payable": false,
      "stateMutability": "view",
      "type": "function"
    },
    {
      "constant": true,
      "inputs": [],
      "name": "rider",
      "outputs": [
        {
          "internalType": "address",
          "name": "",
          "type": "address"
        }
      ],
      "payable": false,
      "stateMutability": "view",
      "type": "function"
    },
    {
      "constant": false,
      "inputs": [],
      "name": "accept",
      "outputs": [],
      "payable": false,
      "stateMutability": "nonpayable",
      "type": "function"
    }
  ],
  "bytecode": "0x608060405234801561001057600080fd5b506040516103ba3803806103ba8339818101604052606081101561003357600080fd5b8101908080519060200190929190805190602001909291908051906020019092919050505082600160006101000a81548173ffffffffffffffffffffffffffffffffffffffff021916908373ffffffffffffffffffffffffffffffffffffffff16021790555081600260006101000a81548173ffffffffffffffffffffffffffffffffffffffff021916908373ffffffffffffffffffffffffffffffffffffffff16021790555033600360006101000a81548173ffffffffffffffffffffffffffffffffffffffff021916908373ffffffffffffffffffffffffffffffffffffffff160217905550806004819055506000600360146101000a81548160ff0219169083151502179055506000600360156101000a81548160ff0219169083151502179055505050506102508061016a6000396000f3fe608060405234801561001057600080fd5b50600436106100415760003560e01c80632852b71c1461004657806353c0a006146100505780636ecc5d621461009a575b600080fd5b61004e6100e4565b005b6100586101cf565b604051808273ffffffffffffffffffffffffffffffffffffffff1673ffffffffffffffffffffffffffffffffffffffff16815260200191505060405180910390f35b6100a26101f5565b604051808273ffffffffffffffffffffffffffffffffffffffff1673ffffffffffffffffffffffffffffffffffffffff16815260200191505060405180910390f35b600160009054906101000a900473ffffffffffffffffffffffffffffffffffffffff1673ffffffffffffffffffffffffffffffffffffffff163373ffffffffffffffffffffffffffffffffffffffff16141561015a576001600360146101000a81548160ff0219169083151502179055506101cd565b600260009054906101000a900473ffffffffffffffffffffffffffffffffffffffff1673ffffffffffffffffffffffffffffffffffffffff163373ffffffffffffffffffffffffffffffffffffffff1614156101cc576001600360156101000a81548160ff0219169083151502179055505b5b565b600160009054906101000a900473ffffffffffffffffffffffffffffffffffffffff1681565b600260009054906101000a900473ffffffffffffffffffffffffffffffffffffffff168156fea265627a7a723158200d63058a48dbfd297d16baac9ac12eddfd6f0fcd09b07d0fef12dda70cdbe52564736f6c63430005100032",
  "source": "// smart contract for payment from passenger to rider \npragma solidity >=0.4.21 <0.7.0;\n\ncontract Payment {\n    uint256 escrowBalance;\n    address public rider;\n    address public driver;\n    address private escrow;\n    bool riderOK;\n    bool driverOK;\n    uint256 rideCost;\n\n\n    constructor(address _rider, address _driver, uint256 _rideCost) public {\n        rider = _rider;\n        driver = _driver;\n        escrow = msg.sender;\n        rideCost = _rideCost;\n        riderOK = false;\n        driverOK = false;\n    }\n\n    function accept() public {\n        if (msg.sender == rider){\n            riderOK = true;\n        } else if (msg.sender == driver){\n            driverOK = true;\n        }\n        // if (riderOK && driverOK){\n        //     payBalance();\n        // }\n    }\n\n    // function payBalance() private {\n    //     if (driver.send(escrowBalance)) {\n    //         escrowBalance = 0;\n    //     } else {\n    //         revert();\n    //     }\n    // }\n\n    // function orderRide() public payable {\n    //     if (msg.sender == rider\n    //     && (msg.value >= rideCost)) {\n    //         escrowBalance += msg.value;\n    //     } else {\n    //         revert();\n    //     }\n    // }\n\n    // function cancel() public {\n    //     if (msg.sender == rider){\n    //         riderOK = false;\n    //     } else if (msg.sender == driver){\n    //         driverOK = false;\n    //     }\n    //     if (!riderOK && !driverOK){\n    //         selfdestruct(rider);\n    //     }\n    // }\n\n    // function kill() public pure {\n    //     if (msg.sender == escrow) {\n    //         selfdestruct(rider);\n    //     }\n    // }\n\n    // function getRideCost() view public returns(uint256) {\n    //     return rideCost;\n    // }\n\n    // function getRider() view public returns(address) {\n    //     return rider;\n    // }\n\n    // function getDriver() view public returns(address) {\n    //     return driver;\n    // }\n\n    // function getOwner() view public returns(address) {\n    //     return escrow;\n    // }\n\n    // function getEscrowBalance() view public returns(uint256) {\n    //     return escrowBalance;\n    // }\n}",
  "sourcePath": "/Users/noorkhan/Desktop/Denoriel/contracts/Payment.sol",
  "compiler": {
    "name": "solc",
    "version": "0.5.16+commit.9c3226ce.Emscripten.clang"
  },
  "schemaVersion": "3.4.1",
  "updatedAt": "2021-07-16T05:36:46.032Z",
  "devdoc": {
    "methods": {}
  },
  "userdoc": {
    "methods": {}
  }
}