{
  "contractName": "Ride",
  "abi": [
    {
      "constant": true,
      "inputs": [
        {
          "internalType": "uint256",
          "name": "",
          "type": "uint256"
        }
      ],
      "name": "Drivers",
      "outputs": [
        {
          "internalType": "address",
          "name": "",
          "type": "address"
        }
      ],
      "payable": false,
      "stateMutability": "view",
      "type": "function"
    },
    {
      "constant": true,
      "inputs": [],
      "name": "bestMatch",
      "outputs": [
        {
          "internalType": "address",
          "name": "",
          "type": "address"
        }
      ],
      "payable": false,
      "stateMutability": "view",
      "type": "function"
    },
    {
      "constant": false,
      "inputs": [
        {
          "internalType": "address",
          "name": "driveraddress",
          "type": "address"
        },
        {
          "internalType": "uint256",
          "name": "xlocation",
          "type": "uint256"
        },
        {
          "internalType": "uint256",
          "name": "ylocation",
          "type": "uint256"
        }
      ],
      "name": "addDriver",
      "outputs": [
        {
          "internalType": "address[]",
          "name": "",
          "type": "address[]"
        }
      ],
      "payable": false,
      "stateMutability": "nonpayable",
      "type": "function"
    },
    {
      "constant": false,
      "inputs": [
        {
          "internalType": "address",
          "name": "driveraddress",
          "type": "address"
        }
      ],
      "name": "removeDriver",
      "outputs": [],
      "payable": false,
      "stateMutability": "nonpayable",
      "type": "function"
    },
    {
      "constant": false,
      "inputs": [
        {
          "internalType": "address",
          "name": "passenger",
          "type": "address"
        },
        {
          "internalType": "uint256",
          "name": "passenger_locationx",
          "type": "uint256"
        },
        {
          "internalType": "uint256",
          "name": "passenger_locationy",
          "type": "uint256"
        }
      ],
      "name": "match_rides",
      "outputs": [
        {
          "internalType": "address",
          "name": "",
          "type": "address"
        }
      ],
      "payable": false,
      "stateMutability": "nonpayable",
      "type": "function"
    }
  ],
  "bytecode": "0x608060405234801561001057600080fd5b506108df806100206000396000f3fe608060405234801561001057600080fd5b50600436106100575760003560e01c8063464c46941461005c5780635f374d5a146100ca5780636642af84146101145780639c2788bc146101c1578063c26bacd114610259575b600080fd5b6100886004803603602081101561007257600080fd5b810190808035906020019092919050505061029d565b604051808273ffffffffffffffffffffffffffffffffffffffff1673ffffffffffffffffffffffffffffffffffffffff16815260200191505060405180910390f35b6100d26102d9565b604051808273ffffffffffffffffffffffffffffffffffffffff1673ffffffffffffffffffffffffffffffffffffffff16815260200191505060405180910390f35b61016a6004803603606081101561012a57600080fd5b81019080803573ffffffffffffffffffffffffffffffffffffffff16906020019092919080359060200190929190803590602001909291905050506102ff565b6040518080602001828103825283818151815260200191508051906020019060200280838360005b838110156101ad578082015181840152602081019050610192565b505050509050019250505060405180910390f35b610217600480360360608110156101d757600080fd5b81019080803573ffffffffffffffffffffffffffffffffffffffff1690602001909291908035906020019092919080359060200190929190505050610485565b604051808273ffffffffffffffffffffffffffffffffffffffff1673ffffffffffffffffffffffffffffffffffffffff16815260200191505060405180910390f35b61029b6004803603602081101561026f57600080fd5b81019080803573ffffffffffffffffffffffffffffffffffffffff1690602001909291905050506107dc565b005b600181815481106102aa57fe5b906000526020600020016000915054906101000a900473ffffffffffffffffffffffffffffffffffffffff1681565b600260009054906101000a900473ffffffffffffffffffffffffffffffffffffffff1681565b606060018490806001815401808255809150509060018203906000526020600020016000909192909190916101000a81548173ffffffffffffffffffffffffffffffffffffffff021916908373ffffffffffffffffffffffffffffffffffffffff1602179055505082600360008673ffffffffffffffffffffffffffffffffffffffff1673ffffffffffffffffffffffffffffffffffffffff1681526020019081526020016000206000018190555081600360008673ffffffffffffffffffffffffffffffffffffffff1673ffffffffffffffffffffffffffffffffffffffff16815260200190815260200160002060010181905550600180548060200260200160405190810160405280929190818152602001828054801561047757602002820191906000526020600020905b8160009054906101000a900473ffffffffffffffffffffffffffffffffffffffff1673ffffffffffffffffffffffffffffffffffffffff168152602001906001019080831161042d575b505050505090509392505050565b60006103e8600581905550600160008154811061049e57fe5b9060005260206000200160009054906101000a900473ffffffffffffffffffffffffffffffffffffffff16600260006101000a81548173ffffffffffffffffffffffffffffffffffffffff021916908373ffffffffffffffffffffffffffffffffffffffff16021790555060008090505b6001805490508110156107af57600554600284600360006001868154811061053357fe5b9060005260206000200160009054906101000a900473ffffffffffffffffffffffffffffffffffffffff1673ffffffffffffffffffffffffffffffffffffffff1673ffffffffffffffffffffffffffffffffffffffff16815260200190815260200160002060010154030a60028660036000600187815481106105b257fe5b9060005260206000200160009054906101000a900473ffffffffffffffffffffffffffffffffffffffff1673ffffffffffffffffffffffffffffffffffffffff1673ffffffffffffffffffffffffffffffffffffffff16815260200190815260200160002060000154030a0110156107a257600283600360006001858154811061063857fe5b9060005260206000200160009054906101000a900473ffffffffffffffffffffffffffffffffffffffff1673ffffffffffffffffffffffffffffffffffffffff1673ffffffffffffffffffffffffffffffffffffffff16815260200190815260200160002060010154030a60028560036000600186815481106106b757fe5b9060005260206000200160009054906101000a900473ffffffffffffffffffffffffffffffffffffffff1673ffffffffffffffffffffffffffffffffffffffff1673ffffffffffffffffffffffffffffffffffffffff16815260200190815260200160002060000154030a016005819055506001818154811061073657fe5b9060005260206000200160009054906101000a900473ffffffffffffffffffffffffffffffffffffffff16600260006101000a81548173ffffffffffffffffffffffffffffffffffffffff021916908373ffffffffffffffffffffffffffffffffffffffff1602179055505b808060010191505061050f565b50600260009054906101000a900473ffffffffffffffffffffffffffffffffffffffff1690509392505050565b60008090505b6001805490508110156108a657600181815481106107fc57fe5b9060005260206000200160009054906101000a900473ffffffffffffffffffffffffffffffffffffffff1673ffffffffffffffffffffffffffffffffffffffff168273ffffffffffffffffffffffffffffffffffffffff161415610899576001818154811061086757fe5b9060005260206000200160006101000a81549073ffffffffffffffffffffffffffffffffffffffff02191690556108a6565b80806001019150506107e2565b505056fea265627a7a723158200de519b5352a0704bcdfa887f71f11bcf42afa7c8ff547e0f0d217222155fea364736f6c63430005100032",
  "source": "// ethereum remix\n// pragma solidity >=0.7.0 <0.9.0;\n// VS code\npragma solidity >=0.4.21 <0.7.0;\n\ncontract Ride {\n    \n    address payable passenger;\n    address[] public Drivers;\n    address public bestMatch;\n    mapping (address => Driver) private Driversinfo;\n    uint[] passenger_list;\n    uint256 minDistance;\n\n    struct Driver{\n        uint location_x;\n        uint location_y;\n    }\n\n    function addDriver(address driveraddress, uint256 xlocation, uint256 ylocation) public returns(address[] memory) {\n        Drivers.push(driveraddress);\n        Driversinfo[driveraddress].location_x = xlocation;\n        Driversinfo[driveraddress].location_y = ylocation;\n        return Drivers;\n    }\n\n\n    function removeDriver(address driveraddress) public {\n        for (uint i=0; i<Drivers.length; i++) {\n            if (driveraddress==Drivers[i]) {\n                delete Drivers[i];\n                break;\n            }\n        }\n    }\n    \n    function match_rides(address passenger, uint256 passenger_locationx, uint256 passenger_locationy) public returns(address) {\n        //match passenger to driver\n        minDistance = 1000;\n        bestMatch = Drivers[0];\n        // bestMatch = 0x5DE55C28154Ab371Fada8307400603bD2D803810;\n        for (uint i=0; i<Drivers.length; i++) {\n            if (((Driversinfo[Drivers[i]].location_x -passenger_locationx )**2 + (Driversinfo[Drivers[i]].location_y -passenger_locationy )**2)<minDistance){\n                minDistance = ((Driversinfo[Drivers[i]].location_x -passenger_locationx )**2 + (Driversinfo[Drivers[i]].location_y -passenger_locationy )**2);\n                bestMatch = Drivers[i]; \n            }\n        }\n        return bestMatch;\n    }\n\n    // function payDriver(address driver){\n    //     driver.send(escrowBalance);\n    // }\n}",
  "sourcePath": "/Users/noorkhan/Desktop/Denoriel/contracts/Ride.sol",
  "compiler": {
    "name": "solc",
    "version": "0.5.16+commit.9c3226ce.Emscripten.clang"
  },
  "schemaVersion": "3.4.1",
  "updatedAt": "2021-07-21T10:18:26.025Z",
  "devdoc": {
    "methods": {}
  },
  "userdoc": {
    "methods": {}
  }
}