{
  "contractName": "Ride",
  "abi": [
    {
      "constant": true,
      "inputs": [
        {
          "internalType": "uint256",
          "name": "",
          "type": "uint256"
        }
      ],
      "name": "Drivers",
      "outputs": [
        {
          "internalType": "address",
          "name": "",
          "type": "address"
        }
      ],
      "payable": false,
      "stateMutability": "view",
      "type": "function"
    },
    {
      "constant": true,
      "inputs": [],
      "name": "bestMatch",
      "outputs": [
        {
          "internalType": "address",
          "name": "",
          "type": "address"
        }
      ],
      "payable": false,
      "stateMutability": "view",
      "type": "function"
    },
    {
      "constant": false,
      "inputs": [
        {
          "internalType": "address",
          "name": "driveraddress",
          "type": "address"
        },
        {
          "internalType": "uint256",
          "name": "xlocation",
          "type": "uint256"
        },
        {
          "internalType": "uint256",
          "name": "ylocation",
          "type": "uint256"
        }
      ],
      "name": "addDriver",
      "outputs": [
        {
          "internalType": "address[]",
          "name": "",
          "type": "address[]"
        }
      ],
      "payable": false,
      "stateMutability": "nonpayable",
      "type": "function"
    },
    {
      "constant": false,
      "inputs": [
        {
          "internalType": "address",
          "name": "driveraddress",
          "type": "address"
        }
      ],
      "name": "removeDriver",
      "outputs": [],
      "payable": false,
      "stateMutability": "nonpayable",
      "type": "function"
    },
    {
      "constant": false,
      "inputs": [
        {
          "internalType": "address",
          "name": "passenger",
          "type": "address"
        },
        {
          "internalType": "uint256",
          "name": "passenger_locationx",
          "type": "uint256"
        },
        {
          "internalType": "uint256",
          "name": "passenger_locationy",
          "type": "uint256"
        }
      ],
      "name": "match_rides",
      "outputs": [
        {
          "internalType": "address",
          "name": "",
          "type": "address"
        }
      ],
      "payable": false,
      "stateMutability": "nonpayable",
      "type": "function"
    },
    {
      "constant": false,
      "inputs": [
        {
          "internalType": "address",
          "name": "passenger",
          "type": "address"
        },
        {
          "internalType": "uint256",
          "name": "amount",
          "type": "uint256"
        }
      ],
      "name": "accept",
      "outputs": [],
      "payable": false,
      "stateMutability": "nonpayable",
      "type": "function"
    },
    {
      "constant": false,
      "inputs": [
        {
          "internalType": "address",
          "name": "passenger",
          "type": "address"
        }
      ],
      "name": "passengerFinished",
      "outputs": [],
      "payable": false,
      "stateMutability": "nonpayable",
      "type": "function"
    },
    {
      "constant": false,
      "inputs": [
        {
          "internalType": "address payable",
          "name": "driver",
          "type": "address"
        }
      ],
      "name": "driverFinished",
      "outputs": [],
      "payable": false,
      "stateMutability": "nonpayable",
      "type": "function"
    },
    {
      "constant": false,
      "inputs": [],
      "name": "driverCancel",
      "outputs": [],
      "payable": false,
      "stateMutability": "nonpayable",
      "type": "function"
    },
    {
      "constant": false,
      "inputs": [],
      "name": "passengerCancel",
      "outputs": [],
      "payable": false,
      "stateMutability": "nonpayable",
      "type": "function"
    }
  ],
  "bytecode": "0x608060405234801561001057600080fd5b50610f75806100206000396000f3fe608060405234801561001057600080fd5b506004361061009e5760003560e01c80638a066e7e116100665780638a066e7e146102565780639c2788bc1461029a578063c26bacd114610332578063cd67571c14610376578063fd336168146103c45761009e565b806303934abb146100a357806333ecdef9146100e7578063464c4694146100f15780635f374d5a1461015f5780636642af84146101a9575b600080fd5b6100e5600480360360208110156100b957600080fd5b81019080803573ffffffffffffffffffffffffffffffffffffffff1690602001909291905050506103ce565b005b6100ef610550565b005b61011d6004803603602081101561010757600080fd5b8101908080359060200190929190505050610657565b604051808273ffffffffffffffffffffffffffffffffffffffff1673ffffffffffffffffffffffffffffffffffffffff16815260200191505060405180910390f35b610167610693565b604051808273ffffffffffffffffffffffffffffffffffffffff1673ffffffffffffffffffffffffffffffffffffffff16815260200191505060405180910390f35b6101ff600480360360608110156101bf57600080fd5b81019080803573ffffffffffffffffffffffffffffffffffffffff16906020019092919080359060200190929190803590602001909291905050506106b9565b6040518080602001828103825283818151815260200191508051906020019060200280838360005b83811015610242578082015181840152602081019050610227565b505050509050019250505060405180910390f35b6102986004803603602081101561026c57600080fd5b81019080803573ffffffffffffffffffffffffffffffffffffffff16906020019092919050505061083f565b005b6102f0600480360360608110156102b057600080fd5b81019080803573ffffffffffffffffffffffffffffffffffffffff169060200190929190803590602001909291908035906020019092919050505061089d565b604051808273ffffffffffffffffffffffffffffffffffffffff1673ffffffffffffffffffffffffffffffffffffffff16815260200191505060405180910390f35b6103746004803603602081101561034857600080fd5b81019080803573ffffffffffffffffffffffffffffffffffffffff169060200190929190505050610c97565b005b6103c26004803603604081101561038c57600080fd5b81019080803573ffffffffffffffffffffffffffffffffffffffff16906020019092919080359060200190929190505050610d65565b005b6103cc610e50565b005b600960008273ffffffffffffffffffffffffffffffffffffffff1673ffffffffffffffffffffffffffffffffffffffff16815260200190815260200160002060000160009054906101000a900460ff1680156104765750600a60003373ffffffffffffffffffffffffffffffffffffffff1673ffffffffffffffffffffffffffffffffffffffff16815260200190815260200160002060000160009054906101000a900460ff165b1561054d578073ffffffffffffffffffffffffffffffffffffffff166108fc600660003373ffffffffffffffffffffffffffffffffffffffff1673ffffffffffffffffffffffffffffffffffffffff168152602001908152602001600020600001549081150290604051600060405180830381858888f19350505050158015610503573d6000803e3d6000fd5b506000600660003373ffffffffffffffffffffffffffffffffffffffff1673ffffffffffffffffffffffffffffffffffffffff168152602001908152602001600020600001819055505b50565b6000600a60003373ffffffffffffffffffffffffffffffffffffffff1673ffffffffffffffffffffffffffffffffffffffff16815260200190815260200160002060000160006101000a81548160ff021916908315150217905550600060066000600560003373ffffffffffffffffffffffffffffffffffffffff1673ffffffffffffffffffffffffffffffffffffffff16815260200190815260200160002060000160009054906101000a900473ffffffffffffffffffffffffffffffffffffffff1673ffffffffffffffffffffffffffffffffffffffff1673ffffffffffffffffffffffffffffffffffffffff16815260200190815260200160002060000181905550565b6002818154811061066457fe5b906000526020600020016000915054906101000a900473ffffffffffffffffffffffffffffffffffffffff1681565b600360009054906101000a900473ffffffffffffffffffffffffffffffffffffffff1681565b606060028490806001815401808255809150509060018203906000526020600020016000909192909190916101000a81548173ffffffffffffffffffffffffffffffffffffffff021916908373ffffffffffffffffffffffffffffffffffffffff1602179055505082600460008673ffffffffffffffffffffffffffffffffffffffff1673ffffffffffffffffffffffffffffffffffffffff1681526020019081526020016000206000018190555081600460008673ffffffffffffffffffffffffffffffffffffffff1673ffffffffffffffffffffffffffffffffffffffff16815260200190815260200160002060010181905550600280548060200260200160405190810160405280929190818152602001828054801561083157602002820191906000526020600020905b8160009054906101000a900473ffffffffffffffffffffffffffffffffffffffff1673ffffffffffffffffffffffffffffffffffffffff16815260200190600101908083116107e7575b505050505090509392505050565b6001600a60008373ffffffffffffffffffffffffffffffffffffffff1673ffffffffffffffffffffffffffffffffffffffff16815260200190815260200160002060000160006101000a81548160ff02191690831515021790555050565b60006103e860088190555060026000815481106108b657fe5b9060005260206000200160009054906101000a900473ffffffffffffffffffffffffffffffffffffffff16600360006101000a81548173ffffffffffffffffffffffffffffffffffffffff021916908373ffffffffffffffffffffffffffffffffffffffff16021790555060008090505b600280549050811015610c6a57600854600284600460006002868154811061094b57fe5b9060005260206000200160009054906101000a900473ffffffffffffffffffffffffffffffffffffffff1673ffffffffffffffffffffffffffffffffffffffff1673ffffffffffffffffffffffffffffffffffffffff16815260200190815260200160002060010154030a60028660046000600287815481106109ca57fe5b9060005260206000200160009054906101000a900473ffffffffffffffffffffffffffffffffffffffff1673ffffffffffffffffffffffffffffffffffffffff1673ffffffffffffffffffffffffffffffffffffffff16815260200190815260200160002060000154030a011015610c5d576002836004600060028581548110610a5057fe5b9060005260206000200160009054906101000a900473ffffffffffffffffffffffffffffffffffffffff1673ffffffffffffffffffffffffffffffffffffffff1673ffffffffffffffffffffffffffffffffffffffff16815260200190815260200160002060010154030a6002856004600060028681548110610acf57fe5b9060005260206000200160009054906101000a900473ffffffffffffffffffffffffffffffffffffffff1673ffffffffffffffffffffffffffffffffffffffff1673ffffffffffffffffffffffffffffffffffffffff16815260200190815260200160002060000154030a0160088190555060028181548110610b4e57fe5b9060005260206000200160009054906101000a900473ffffffffffffffffffffffffffffffffffffffff16600360006101000a81548173ffffffffffffffffffffffffffffffffffffffff021916908373ffffffffffffffffffffffffffffffffffffffff160217905550600360009054906101000a900473ffffffffffffffffffffffffffffffffffffffff16600560008773ffffffffffffffffffffffffffffffffffffffff1673ffffffffffffffffffffffffffffffffffffffff16815260200190815260200160002060000160006101000a81548173ffffffffffffffffffffffffffffffffffffffff021916908373ffffffffffffffffffffffffffffffffffffffff1602179055505b8080600101915050610927565b50600360009054906101000a900473ffffffffffffffffffffffffffffffffffffffff1690509392505050565b60008090505b600280549050811015610d615760028181548110610cb757fe5b9060005260206000200160009054906101000a900473ffffffffffffffffffffffffffffffffffffffff1673ffffffffffffffffffffffffffffffffffffffff168273ffffffffffffffffffffffffffffffffffffffff161415610d545760028181548110610d2257fe5b9060005260206000200160006101000a81549073ffffffffffffffffffffffffffffffffffffffff0219169055610d61565b8080600101915050610c9d565b5050565b600560008373ffffffffffffffffffffffffffffffffffffffff1673ffffffffffffffffffffffffffffffffffffffff16815260200190815260200160002060000160009054906101000a900473ffffffffffffffffffffffffffffffffffffffff1673ffffffffffffffffffffffffffffffffffffffff163373ffffffffffffffffffffffffffffffffffffffff161415610e4c5780600660003373ffffffffffffffffffffffffffffffffffffffff1673ffffffffffffffffffffffffffffffffffffffff168152602001908152602001600020600001600082825401925050819055505b5050565b6000600960003373ffffffffffffffffffffffffffffffffffffffff1673ffffffffffffffffffffffffffffffffffffffff16815260200190815260200160002060000160006101000a81548160ff0219169083151502179055506000600660003373ffffffffffffffffffffffffffffffffffffffff1673ffffffffffffffffffffffffffffffffffffffff1681526020019081526020016000206000015414610f3e576000600660003373ffffffffffffffffffffffffffffffffffffffff1673ffffffffffffffffffffffffffffffffffffffff168152602001908152602001600020600001819055505b56fea265627a7a72315820a4aa0a09a44832129f6e6561a54bd98c00d88780cf71498cc542b43aa1c32bf264736f6c63430005100032",
  "source": "// ethereum remix\n// pragma solidity >=0.7.0 <0.9.0;\n// VS code\npragma solidity >=0.4.21 <0.7.0;\n\ncontract Ride {\n    \n    uint256 escrowBalance;\n    address payable passenger;\n    address[] public Drivers; // All the addresses of drivers\n    address public bestMatch;\n    mapping (address => DriverInfo) private Driversinfo;\n    mapping (address => DriversAddress) private RideMatch;\n    mapping (address => escrowbalance) private escrowDict;\n    uint[] passenger_list;\n    uint256 minDistance;\n    mapping (address => driverAccept) private DriverAccDict;\n    mapping (address => passengerAccept) private passengerAccDict;\n\n    struct DriverInfo {\n        uint location_x;\n        uint location_y;\n    }\n    struct DriversAddress {\n        address drivers;\n    }\n    struct escrowbalance{\n        uint256 amount;\n    }\n    struct driverAccept{\n        bool driverAccept; // Set to true at the end of the journey\n    }\n\n    struct passengerAccept{\n        bool passengerAccept; // Set to true at the end of the journey\n    }\n\n    function addDriver(address driveraddress, uint256 xlocation, uint256 ylocation) public returns(address[] memory) {\n        Drivers.push(driveraddress);\n        Driversinfo[driveraddress].location_x = xlocation;\n        Driversinfo[driveraddress].location_y = ylocation;\n        return Drivers;\n    }\n\n\n    function removeDriver(address driveraddress) public {\n        for (uint i=0; i<Drivers.length; i++) {\n            if (driveraddress==Drivers[i]) {\n                delete Drivers[i];\n                break;\n            }\n        }\n    }\n    \n    function match_rides(address passenger, uint256 passenger_locationx, uint256 passenger_locationy) public returns(address) {\n        //match passenger to driver\n        minDistance = 1000;\n        bestMatch = Drivers[0];\n        // bestMatch = 0x5DE55C28154Ab371Fada8307400603bD2D803810;\n        for (uint i=0; i<Drivers.length; i++) {\n            if (((Driversinfo[Drivers[i]].location_x -passenger_locationx )**2 + (Driversinfo[Drivers[i]].location_y -passenger_locationy )**2)<minDistance){\n                minDistance = ((Driversinfo[Drivers[i]].location_x -passenger_locationx )**2 + (Driversinfo[Drivers[i]].location_y -passenger_locationy )**2);\n                bestMatch = Drivers[i];\n                RideMatch[passenger].drivers = bestMatch;\n            }\n        }\n        return bestMatch;\n    }\n    \n    // called by driver\n    function accept(address passenger, uint256 amount) public{\n        if (msg.sender == RideMatch[passenger].drivers){\n            // pay the escrow\n            escrowDict[msg.sender].amount += amount;\n        }\n    }\n\n    // passenger accepts finish state first before driver\n    function passengerFinished(address passenger) public {\n        passengerAccDict[passenger].passengerAccept=true;\n    }\n\n    // driver accepts finish state after passenger \n    function driverFinished(address payable driver) public {\n        if (DriverAccDict[driver].driverAccept && passengerAccDict[msg.sender].passengerAccept){\n            driver.transfer(escrowDict[msg.sender].amount);\n            escrowDict[msg.sender].amount = 0; // can only entertain one passenger at a time\n        }\n    }\n\n    function driverCancel() public {\n        //driver cancelling\n        DriverAccDict[msg.sender].driverAccept=false;\n        if(escrowDict[msg.sender].amount != 0) {\n            escrowDict[msg.sender].amount = 0;\n        }\n    }\n    function passengerCancel() public {\n        passengerAccDict[msg.sender].passengerAccept =false;      \n        escrowDict[RideMatch[msg.sender].drivers].amount = 0;\n    }\n}",
  "sourcePath": "/Users/noorkhan/Desktop/Denoriel/contracts/Ride.sol",
  "compiler": {
    "name": "solc",
    "version": "0.5.16+commit.9c3226ce.Emscripten.clang"
  },
  "schemaVersion": "3.4.1",
  "updatedAt": "2021-07-21T14:14:44.824Z",
  "networkType": "ethereum",
  "devdoc": {
    "methods": {}
  },
  "userdoc": {
    "methods": {}
  }
}