{
  "contractName": "Ride",
  "abi": [
    {
      "inputs": [
        {
          "internalType": "uint256",
          "name": "",
          "type": "uint256"
        }
      ],
      "name": "Drivers",
      "outputs": [
        {
          "internalType": "address",
          "name": "",
          "type": "address"
        }
      ],
      "stateMutability": "view",
      "type": "function",
      "constant": true
    },
    {
      "inputs": [],
      "name": "bestMatch",
      "outputs": [
        {
          "internalType": "address",
          "name": "",
          "type": "address"
        }
      ],
      "stateMutability": "view",
      "type": "function",
      "constant": true
    },
    {
      "inputs": [
        {
          "internalType": "address",
          "name": "driveraddress",
          "type": "address"
        },
        {
          "internalType": "uint256",
          "name": "xlocation",
          "type": "uint256"
        },
        {
          "internalType": "uint256",
          "name": "ylocation",
          "type": "uint256"
        }
      ],
      "name": "addDriver",
      "outputs": [
        {
          "internalType": "address[]",
          "name": "",
          "type": "address[]"
        }
      ],
      "stateMutability": "nonpayable",
      "type": "function"
    },
    {
      "inputs": [
        {
          "internalType": "address",
          "name": "driveraddress",
          "type": "address"
        }
      ],
      "name": "removeDriver",
      "outputs": [
        {
          "internalType": "address[]",
          "name": "",
          "type": "address[]"
        }
      ],
      "stateMutability": "nonpayable",
      "type": "function"
    },
    {
      "inputs": [],
      "name": "getPassengerList",
      "outputs": [
        {
          "internalType": "uint256[]",
          "name": "",
          "type": "uint256[]"
        }
      ],
      "stateMutability": "view",
      "type": "function",
      "constant": true
    },
    {
      "inputs": [
        {
          "internalType": "address",
          "name": "passenger",
          "type": "address"
        },
        {
          "internalType": "uint256",
          "name": "passenger_locationx",
          "type": "uint256"
        },
        {
          "internalType": "uint256",
          "name": "passenger_locationy",
          "type": "uint256"
        }
      ],
      "name": "match_rides",
      "outputs": [
        {
          "internalType": "address",
          "name": "",
          "type": "address"
        }
      ],
      "stateMutability": "nonpayable",
      "type": "function"
    },
    {
      "inputs": [
        {
          "internalType": "address",
          "name": "passenger",
          "type": "address"
        },
        {
          "internalType": "uint256",
          "name": "amount",
          "type": "uint256"
        }
      ],
      "name": "accept",
      "outputs": [
        {
          "internalType": "uint256",
          "name": "",
          "type": "uint256"
        }
      ],
      "stateMutability": "nonpayable",
      "type": "function"
    },
    {
      "inputs": [
        {
          "internalType": "address",
          "name": "passenger",
          "type": "address"
        }
      ],
      "name": "passengerFinished",
      "outputs": [
        {
          "internalType": "bool",
          "name": "",
          "type": "bool"
        }
      ],
      "stateMutability": "nonpayable",
      "type": "function"
    },
    {
      "inputs": [
        {
          "internalType": "address",
          "name": "passenger",
          "type": "address"
        },
        {
          "internalType": "address payable",
          "name": "driver",
          "type": "address"
        }
      ],
      "name": "driverFinished",
      "outputs": [
        {
          "internalType": "uint256",
          "name": "",
          "type": "uint256"
        }
      ],
      "stateMutability": "nonpayable",
      "type": "function"
    },
    {
      "inputs": [
        {
          "internalType": "address payable",
          "name": "passenger",
          "type": "address"
        }
      ],
      "name": "driverCancel",
      "outputs": [
        {
          "internalType": "uint256",
          "name": "",
          "type": "uint256"
        }
      ],
      "stateMutability": "nonpayable",
      "type": "function"
    },
    {
      "inputs": [
        {
          "internalType": "address payable",
          "name": "passenger",
          "type": "address"
        }
      ],
      "name": "passengerCancel",
      "outputs": [
        {
          "internalType": "uint256",
          "name": "",
          "type": "uint256"
        }
      ],
      "stateMutability": "nonpayable",
      "type": "function"
    },
    {
      "inputs": [
        {
          "internalType": "address",
          "name": "driver",
          "type": "address"
        }
      ],
      "name": "getBestMatch",
      "outputs": [
        {
          "internalType": "address",
          "name": "",
          "type": "address"
        }
      ],
      "stateMutability": "view",
      "type": "function",
      "constant": true
    }
  ],
  "bytecode": "0x60806040526000600160006101000a81548160ff02191690831515021790555034801561002b57600080fd5b50611dbc8061003b6000396000f3fe608060405234801561001057600080fd5b50600436106100b45760003560e01c80636642af84116100715780636642af84146101b55780638545a3d7146101e55780638a066e7e146102155780639c2788bc14610245578063c26bacd114610275578063cd67571c146102a5576100b4565b8063396d7bcf146100b95780633f439265146100e957806345d6d09714610119578063464c4694146101375780635a8ae7fc146101675780635f374d5a14610197575b600080fd5b6100d360048036038101906100ce91906116e8565b6102d5565b6040516100e09190611999565b60405180910390f35b61010360048036038101906100fe91906116bb565b6104f5565b6040516101109190611999565b60405180910390f35b610121610761565b60405161012e919061195c565b60405180910390f35b610151600480360381019061014c91906117bb565b6107b9565b60405161015e919061191f565b60405180910390f35b610181600480360381019061017c91906116bb565b6107f8565b60405161018e9190611999565b60405180910390f35b61019f610ae5565b6040516101ac919061191f565b60405180910390f35b6101cf60048036038101906101ca9190611768565b610b0b565b6040516101dc919061193a565b60405180910390f35b6101ff60048036038101906101fa919061168e565b610c8e565b60405161020c919061191f565b60405180910390f35b61022f600480360381019061022a919061168e565b610cfa565b60405161023c919061197e565b60405180910390f35b61025f600480360381019061025a9190611768565b610dae565b60405161026c919061191f565b60405180910390f35b61028f600480360381019061028a919061168e565b611378565b60405161029c919061193a565b60405180910390f35b6102bf60048036038101906102ba9190611728565b6114b2565b6040516102cc9190611999565b60405180910390f35b6000600160009054906101000a900460ff16156102f157600080fd5b60018060006101000a81548160ff021916908315150217905550600b60003373ffffffffffffffffffffffffffffffffffffffff1673ffffffffffffffffffffffffffffffffffffffff16815260200190815260200160002060000160009054906101000a900460ff1680156103b35750600c60008473ffffffffffffffffffffffffffffffffffffffff1673ffffffffffffffffffffffffffffffffffffffff16815260200190815260200160002060000160009054906101000a900460ff165b156104ee578173ffffffffffffffffffffffffffffffffffffffff166108fc600860003373ffffffffffffffffffffffffffffffffffffffff1673ffffffffffffffffffffffffffffffffffffffff168152602001908152602001600020600001549081150290604051600060405180830381858888f19350505050158015610440573d6000803e3d6000fd5b506000600860003373ffffffffffffffffffffffffffffffffffffffff1673ffffffffffffffffffffffffffffffffffffffff168152602001908152602001600020600001819055506000600160006101000a81548160ff021916908315150217905550600860003373ffffffffffffffffffffffffffffffffffffffff1673ffffffffffffffffffffffffffffffffffffffff1681526020019081526020016000206000015490506104ef565b5b92915050565b600080600b60003373ffffffffffffffffffffffffffffffffffffffff1673ffffffffffffffffffffffffffffffffffffffff16815260200190815260200160002060000160006101000a81548160ff021916908315150217905550600160009054906101000a900460ff161561056b57600080fd5b60018060006101000a81548160ff0219169083151502179055506000600b60003373ffffffffffffffffffffffffffffffffffffffff1673ffffffffffffffffffffffffffffffffffffffff16815260200190815260200160002060000160006101000a81548160ff0219169083151502179055506000600860003373ffffffffffffffffffffffffffffffffffffffff1673ffffffffffffffffffffffffffffffffffffffff16815260200190815260200160002060000154146106fc576000600860003373ffffffffffffffffffffffffffffffffffffffff1673ffffffffffffffffffffffffffffffffffffffff168152602001908152602001600020600001819055508173ffffffffffffffffffffffffffffffffffffffff166108fc600860003373ffffffffffffffffffffffffffffffffffffffff1673ffffffffffffffffffffffffffffffffffffffff168152602001908152602001600020600001549081150290604051600060405180830381858888f193505050501580156106fa573d6000803e3d6000fd5b505b6000600160006101000a81548160ff021916908315150217905550600860003373ffffffffffffffffffffffffffffffffffffffff1673ffffffffffffffffffffffffffffffffffffffff168152602001908152602001600020600001549050919050565b606060098054806020026020016040519081016040528092919081815260200182805480156107af57602002820191906000526020600020905b81548152602001906001019080831161079b575b5050505050905090565b600481815481106107c957600080fd5b906000526020600020016000915054906101000a900473ffffffffffffffffffffffffffffffffffffffff1681565b6000600160009054906101000a900460ff161561081457600080fd5b60018060006101000a81548160ff0219169083151502179055506000600c60003373ffffffffffffffffffffffffffffffffffffffff1673ffffffffffffffffffffffffffffffffffffffff16815260200190815260200160002060000160006101000a81548160ff0219169083151502179055508173ffffffffffffffffffffffffffffffffffffffff166108fc60086000600760003373ffffffffffffffffffffffffffffffffffffffff1673ffffffffffffffffffffffffffffffffffffffff16815260200190815260200160002060000160009054906101000a900473ffffffffffffffffffffffffffffffffffffffff1673ffffffffffffffffffffffffffffffffffffffff1673ffffffffffffffffffffffffffffffffffffffff168152602001908152602001600020600001549081150290604051600060405180830381858888f19350505050158015610973573d6000803e3d6000fd5b50600060086000600760003373ffffffffffffffffffffffffffffffffffffffff1673ffffffffffffffffffffffffffffffffffffffff16815260200190815260200160002060000160009054906101000a900473ffffffffffffffffffffffffffffffffffffffff1673ffffffffffffffffffffffffffffffffffffffff1673ffffffffffffffffffffffffffffffffffffffff168152602001908152602001600020600001819055506000600160006101000a81548160ff02191690831515021790555060086000600760003373ffffffffffffffffffffffffffffffffffffffff1673ffffffffffffffffffffffffffffffffffffffff16815260200190815260200160002060000160009054906101000a900473ffffffffffffffffffffffffffffffffffffffff1673ffffffffffffffffffffffffffffffffffffffff1673ffffffffffffffffffffffffffffffffffffffff168152602001908152602001600020600001549050919050565b600560009054906101000a900473ffffffffffffffffffffffffffffffffffffffff1681565b60606004849080600181540180825580915050600190039060005260206000200160009091909190916101000a81548173ffffffffffffffffffffffffffffffffffffffff021916908373ffffffffffffffffffffffffffffffffffffffff16021790555082600660008673ffffffffffffffffffffffffffffffffffffffff1673ffffffffffffffffffffffffffffffffffffffff1681526020019081526020016000206000018190555081600660008673ffffffffffffffffffffffffffffffffffffffff1673ffffffffffffffffffffffffffffffffffffffff168152602001908152602001600020600101819055506004805480602002602001604051908101604052809291908181526020018280548015610c8057602002820191906000526020600020905b8160009054906101000a900473ffffffffffffffffffffffffffffffffffffffff1673ffffffffffffffffffffffffffffffffffffffff1681526020019060010190808311610c36575b505050505090509392505050565b6000600d60008373ffffffffffffffffffffffffffffffffffffffff1673ffffffffffffffffffffffffffffffffffffffff16815260200190815260200160002060000160009054906101000a900473ffffffffffffffffffffffffffffffffffffffff169050919050565b60006001600c60008473ffffffffffffffffffffffffffffffffffffffff1673ffffffffffffffffffffffffffffffffffffffff16815260200190815260200160002060000160006101000a81548160ff021916908315150217905550600c60008373ffffffffffffffffffffffffffffffffffffffff1673ffffffffffffffffffffffffffffffffffffffff16815260200190815260200160002060000160009054906101000a900460ff169050919050565b60006103e8600a819055506004600081548110610dce57610dcd611d00565b5b9060005260206000200160009054906101000a900473ffffffffffffffffffffffffffffffffffffffff16600560006101000a81548173ffffffffffffffffffffffffffffffffffffffff021916908373ffffffffffffffffffffffffffffffffffffffff16021790555060005b6004805490508110156112a857600073ffffffffffffffffffffffffffffffffffffffff1660048281548110610e7557610e74611d00565b5b9060005260206000200160009054906101000a900473ffffffffffffffffffffffffffffffffffffffff1673ffffffffffffffffffffffffffffffffffffffff161461129557600a546002846006600060048681548110610ed957610ed8611d00565b5b9060005260206000200160009054906101000a900473ffffffffffffffffffffffffffffffffffffffff1673ffffffffffffffffffffffffffffffffffffffff1673ffffffffffffffffffffffffffffffffffffffff16815260200190815260200160002060010154610f4c9190611bed565b610f569190611acf565b6002866006600060048781548110610f7157610f70611d00565b5b9060005260206000200160009054906101000a900473ffffffffffffffffffffffffffffffffffffffff1673ffffffffffffffffffffffffffffffffffffffff1673ffffffffffffffffffffffffffffffffffffffff16815260200190815260200160002060000154610fe49190611bed565b610fee9190611acf565b610ff89190611a26565b101561129457600283600660006004858154811061101957611018611d00565b5b9060005260206000200160009054906101000a900473ffffffffffffffffffffffffffffffffffffffff1673ffffffffffffffffffffffffffffffffffffffff1673ffffffffffffffffffffffffffffffffffffffff1681526020019081526020016000206001015461108c9190611bed565b6110969190611acf565b60028560066000600486815481106110b1576110b0611d00565b5b9060005260206000200160009054906101000a900473ffffffffffffffffffffffffffffffffffffffff1673ffffffffffffffffffffffffffffffffffffffff1673ffffffffffffffffffffffffffffffffffffffff168152602001908152602001600020600001546111249190611bed565b61112e9190611acf565b6111389190611a26565b600a819055506004818154811061115257611151611d00565b5b9060005260206000200160009054906101000a900473ffffffffffffffffffffffffffffffffffffffff16600560006101000a81548173ffffffffffffffffffffffffffffffffffffffff021916908373ffffffffffffffffffffffffffffffffffffffff16021790555060006040518060200160405280600560009054906101000a900473ffffffffffffffffffffffffffffffffffffffff1673ffffffffffffffffffffffffffffffffffffffff16815250905080600760008873ffffffffffffffffffffffffffffffffffffffff1673ffffffffffffffffffffffffffffffffffffffff16815260200190815260200160002060008201518160000160006101000a81548173ffffffffffffffffffffffffffffffffffffffff021916908373ffffffffffffffffffffffffffffffffffffffff160217905550905050505b5b80806112a090611c88565b915050610e3c565b5083600d6000600560009054906101000a900473ffffffffffffffffffffffffffffffffffffffff1673ffffffffffffffffffffffffffffffffffffffff1673ffffffffffffffffffffffffffffffffffffffff16815260200190815260200160002060000160006101000a81548173ffffffffffffffffffffffffffffffffffffffff021916908373ffffffffffffffffffffffffffffffffffffffff160217905550600560009054906101000a900473ffffffffffffffffffffffffffffffffffffffff1690509392505050565b606060005b6004805490508110156114ab576004818154811061139e5761139d611d00565b5b9060005260206000200160009054906101000a900473ffffffffffffffffffffffffffffffffffffffff1673ffffffffffffffffffffffffffffffffffffffff168373ffffffffffffffffffffffffffffffffffffffff16141561149857600481815481106114105761140f611d00565b5b9060005260206000200160006101000a81549073ffffffffffffffffffffffffffffffffffffffff02191690556114ab565b8160009054906101000a900473ffffffffffffffffffffffffffffffffffffffff1673ffffffffffffffffffffffffffffffffffffffff16815260200190600101908083116114425750505050509150506114ad565b80806114a390611c88565b91505061137d565b505b919050565b6000600760008473ffffffffffffffffffffffffffffffffffffffff1673ffffffffffffffffffffffffffffffffffffffff16815260200190815260200160002060000160009054906101000a900473ffffffffffffffffffffffffffffffffffffffff1673ffffffffffffffffffffffffffffffffffffffff163373ffffffffffffffffffffffffffffffffffffffff161415611648576001600b60003373ffffffffffffffffffffffffffffffffffffffff1673ffffffffffffffffffffffffffffffffffffffff16815260200190815260200160002060000160006101000a81548160ff02191690831515021790555081600860003373ffffffffffffffffffffffffffffffffffffffff1673ffffffffffffffffffffffffffffffffffffffff16815260200190815260200160002060000160008282546115f79190611a26565b92505081905550600860003373ffffffffffffffffffffffffffffffffffffffff1673ffffffffffffffffffffffffffffffffffffffff168152602001908152602001600020600001549050611649565b5b92915050565b60008135905061165e81611d41565b92915050565b60008135905061167381611d58565b92915050565b60008135905061168881611d6f565b92915050565b6000602082840312156116a4576116a3611d2f565b5b60006116b28482850161164f565b91505092915050565b6000602082840312156116d1576116d0611d2f565b5b60006116df84828501611664565b91505092915050565b600080604083850312156116ff576116fe611d2f565b5b600061170d8582860161164f565b925050602061171e85828601611664565b9150509250929050565b6000806040838503121561173f5761173e611d2f565b5b600061174d8582860161164f565b925050602061175e85828601611679565b9150509250929050565b60008060006060848603121561178157611780611d2f565b5b600061178f8682870161164f565b93505060206117a086828701611679565b92505060406117b186828701611679565b9150509250925092565b6000602082840312156117d1576117d0611d2f565b5b60006117df84828501611679565b91505092915050565b60006117f48383611818565b60208301905092915050565b600061180c8383611901565b60208301905092915050565b61182181611c21565b82525050565b61183081611c21565b82525050565b6000611841826119d4565b61184b8185611a04565b9350611856836119b4565b8060005b8381101561188757815161186e88826117e8565b9750611879836119ea565b92505060018101905061185a565b5085935050505092915050565b600061189f826119df565b6118a98185611a15565b93506118b4836119c4565b8060005b838110156118e55781516118cc8882611800565b97506118d7836119f7565b9250506001810190506118b8565b5085935050505092915050565b6118fb81611c45565b82525050565b61190a81611c71565b82525050565b61191981611c71565b82525050565b60006020820190506119346000830184611827565b92915050565b600060208201905081810360008301526119548184611836565b905092915050565b600060208201905081810360008301526119768184611894565b905092915050565b600060208201905061199360008301846118f2565b92915050565b60006020820190506119ae6000830184611910565b92915050565b6000819050602082019050919050565b6000819050602082019050919050565b600081519050919050565b600081519050919050565b6000602082019050919050565b6000602082019050919050565b600082825260208201905092915050565b600082825260208201905092915050565b6000611a3182611c71565b9150611a3c83611c71565b9250827fffffffffffffffffffffffffffffffffffffffffffffffffffffffffffffffff03821115611a7157611a70611cd1565b5b828201905092915050565b6000808291508390505b6001851115611ac657808604811115611aa257611aa1611cd1565b5b6001851615611ab15780820291505b8081029050611abf85611d34565b9450611a86565b94509492505050565b6000611ada82611c71565b9150611ae583611c7b565b9250611b127fffffffffffffffffffffffffffffffffffffffffffffffffffffffffffffffff8484611b1a565b905092915050565b600082611b2a5760019050611be6565b81611b385760009050611be6565b8160018114611b4e5760028114611b5857611b87565b6001915050611be6565b60ff841115611b6a57611b69611cd1565b5b8360020a915084821115611b8157611b80611cd1565b5b50611be6565b5060208310610133831016604e8410600b8410161715611bbc5782820a905083811115611bb757611bb6611cd1565b5b611be6565b611bc98484846001611a7c565b92509050818404811115611be057611bdf611cd1565b5b81810290505b9392505050565b6000611bf882611c71565b9150611c0383611c71565b925082821015611c1657611c15611cd1565b5b828203905092915050565b6000611c2c82611c51565b9050919050565b6000611c3e82611c51565b9050919050565b60008115159050919050565b600073ffffffffffffffffffffffffffffffffffffffff82169050919050565b6000819050919050565b600060ff82169050919050565b6000611c9382611c71565b91507fffffffffffffffffffffffffffffffffffffffffffffffffffffffffffffffff821415611cc657611cc5611cd1565b5b600182019050919050565b7f4e487b7100000000000000000000000000000000000000000000000000000000600052601160045260246000fd5b7f4e487b7100000000000000000000000000000000000000000000000000000000600052603260045260246000fd5b600080fd5b60008160011c9050919050565b611d4a81611c21565b8114611d5557600080fd5b50565b611d6181611c33565b8114611d6c57600080fd5b50565b611d7881611c71565b8114611d8357600080fd5b5056fea2646970667358221220f314549240c046dc84ff78995ba7e1f7b018288f3d70cacdb6ea9daf00033dd864736f6c63430008070033",
  "immutableReferences": {},
  "source": "// ethereum remix\n// pragma solidity >=0.7.0 <0.9.0;\n// VS code\npragma solidity >=0.7.0 <0.9.0;\n\ncontract Ride {\n    \n    uint256 escrowBalance;\n    bool lock = false;\n    uint256 payAmount;\n    address payable passenger;\n    address[] public Drivers; // All the addresses of drivers\n    address public bestMatch;\n    mapping (address => DriverInfo) private Driversinfo;\n    mapping (address => DriversAddress) private RideMatch;\n    mapping (address => escrowbalance) private escrowDict;\n    uint[] passenger_list;\n    uint256 minDistance;\n    mapping (address => driverAccept) private DriverAccDict;\n    mapping (address => passengerAccept) private passengerAccDict;\n    mapping (address => MapToPassenger) private DriverToPassenger;\n\n\n    struct DriverInfo {\n        uint location_x;\n        uint location_y;\n    }\n    struct DriversAddress {\n        address drivers;\n    }\n    struct escrowbalance{\n        uint256 amount;\n    }\n    struct driverAccept{\n        bool driverAccept; // Set to true at the end of the journey\n    }\n\n    struct passengerAccept{\n        bool passengerAccept; // Set to true at the end of the journey\n    }\n\n    struct MapToPassenger{\n        address drivers;\n    }\n\n    function addDriver(address driveraddress, uint256 xlocation, uint256 ylocation) public returns(address[] memory) {\n        Drivers.push(driveraddress);\n        Driversinfo[driveraddress].location_x = xlocation;\n        Driversinfo[driveraddress].location_y = ylocation;\n        return Drivers;\n        // return Driversinfo[0xaBA2eAB6A94977e2c571CD0371BB25Bfda16b978].location_x;\n    }\n\n\n    function removeDriver(address driveraddress) public returns (address[] memory) {\n        for (uint i=0; i<Drivers.length; i++) {\n            if (driveraddress==Drivers[i]) {\n                delete Drivers[i];\n                break;\n                return Drivers;\n            }\n        }\n    }\n    \n    function getPassengerList() public view returns (uint[] memory) {\n        return passenger_list;\n    }\n\n    function match_rides(address passenger, uint256 passenger_locationx, uint256 passenger_locationy) public returns(address) {\n        //match passenger to driver\n        minDistance = 1000;\n        bestMatch = Drivers[0];\n        // bestMatch = 0x5DE55C28154Ab371Fada8307400603bD2D803810;\n        for (uint i=0; i<Drivers.length; i++) {\n            if(Drivers[i] != 0x0000000000000000000000000000000000000000) {\n                if (((Driversinfo[Drivers[i]].location_x -passenger_locationx )**2 + (Driversinfo[Drivers[i]].location_y -passenger_locationy )**2)<minDistance){\n                    minDistance = ((Driversinfo[Drivers[i]].location_x -passenger_locationx )**2 + (Driversinfo[Drivers[i]].location_y -passenger_locationy )**2);\n                    bestMatch = Drivers[i];\n                    DriversAddress memory dAdd = DriversAddress(bestMatch);\n                    // RideMatch[passenger].drivers = bestMatch;\n                    RideMatch[passenger] = dAdd;\n                }\n            }\n        }\n        DriverToPassenger[bestMatch].drivers = passenger;\n        return bestMatch;\n        // return RideMatch[passenger].drivers;\n    }\n    \n    // called by driver\n    function accept(address passenger, uint256 amount) public returns(uint256){\n        // return RideMatch[passenger].drivers;\n        if (msg.sender == RideMatch[passenger].drivers){\n            DriverAccDict[msg.sender].driverAccept=true;\n            // pay the escrow\n            escrowDict[msg.sender].amount += amount;\n            return escrowDict[msg.sender].amount;\n        }\n    }\n\n    // passenger accepts finish state first before driver\n    function passengerFinished(address passenger) public returns(bool) {\n        passengerAccDict[passenger].passengerAccept=true;\n        return passengerAccDict[passenger].passengerAccept;\n    }\n\n    // driver accepts finish state after passenger \n    function driverFinished(address passenger, address payable driver) public returns(uint256) {\n        require(!lock);\n        lock = true;\n        if (DriverAccDict[msg.sender].driverAccept && passengerAccDict[passenger].passengerAccept){\n            // return escrowDict[msg.sender].amount;\n            driver.transfer(escrowDict[msg.sender].amount);\n            escrowDict[msg.sender].amount = 0; // can only entertain one passenger at a time\n            lock = false;\n            return escrowDict[msg.sender].amount;\n        }\n    }\n\n    function driverCancel(address payable passenger) public returns(uint256) {\n        //driver cancelling\n        DriverAccDict[msg.sender].driverAccept=false;\n        // if(escrowDict[msg.sender].amount != 0) {\n        //     payAmount = escrowDict[msg.sender].amount;\n        //     escrowDict[msg.sender].amount = 0;\n        //     passenger.transfer(payAmount);\n        //     payAmount = 0;\n        // }\n        require(!lock);\n        lock = true;\n        DriverAccDict[msg.sender].driverAccept=false;\n        if(escrowDict[msg.sender].amount != 0) {\n            escrowDict[msg.sender].amount = 0;\n            passenger.transfer(escrowDict[msg.sender].amount);\n        }\n        lock = false;\n        return escrowDict[msg.sender].amount;\n    }\n    \n    function passengerCancel(address payable passenger) public returns(uint256) {\n        require(!lock);\n        lock = true;\n        passengerAccDict[msg.sender].passengerAccept = false;\n        passenger.transfer(escrowDict[RideMatch[msg.sender].drivers].amount);\n        escrowDict[RideMatch[msg.sender].drivers].amount = 0;\n        lock = false;\n        return escrowDict[RideMatch[msg.sender].drivers].amount;\n    }\n\n    function getBestMatch(address driver) public view returns (address){\n        return DriverToPassenger[driver].drivers;\n    }\n}",
  "sourcePath": "/mnt/c/Users/tscd1/OneDrive/Desktop/Denoriel/contracts/Ride.sol",
  "compiler": {
    "name": "solc",
    "version": "0.8.7+commit.e28d00a7.Emscripten.clang"
  },
  "schemaVersion": "3.4.1",
  "updatedAt": "2021-08-12T08:27:45.698Z",
  "networkType": "ethereum",
  "devdoc": {
    "kind": "dev",
    "methods": {},
    "version": 1
  },
  "userdoc": {
    "kind": "user",
    "methods": {},
    "version": 1
  }
}